{
  "contractName": "AIModelMarketplace",
  "abi": [
    {
      "anonymous": false,
      "inputs": [
        {
          "indexed": false,
          "internalType": "uint256",
          "name": "modelId",
          "type": "uint256"
        },
        {
          "indexed": false,
          "internalType": "string",
          "name": "name",
          "type": "string"
        },
        {
          "indexed": false,
          "internalType": "address",
          "name": "creator",
          "type": "address"
        }
      ],
      "name": "ModelListed",
      "type": "event"
    },
    {
      "anonymous": false,
      "inputs": [
        {
          "indexed": false,
          "internalType": "uint256",
          "name": "modelId",
          "type": "uint256"
        },
        {
          "indexed": false,
          "internalType": "address",
          "name": "buyer",
          "type": "address"
        }
      ],
      "name": "ModelPurchased",
      "type": "event"
    },
    {
      "anonymous": false,
      "inputs": [
        {
          "indexed": false,
          "internalType": "uint256",
          "name": "modelId",
          "type": "uint256"
        },
        {
          "indexed": false,
          "internalType": "uint8",
          "name": "rating",
          "type": "uint8"
        },
        {
          "indexed": false,
          "internalType": "address",
          "name": "rater",
          "type": "address"
        }
      ],
      "name": "ModelRated",
      "type": "event"
    },
    {
      "inputs": [
        {
          "internalType": "uint256",
          "name": "",
          "type": "uint256"
        },
        {
          "internalType": "address",
          "name": "",
          "type": "address"
        }
      ],
      "name": "hasPurchased",
      "outputs": [
        {
          "internalType": "bool",
          "name": "",
          "type": "bool"
        }
      ],
      "stateMutability": "view",
      "type": "function"
    },
    {
      "inputs": [
        {
          "internalType": "uint256",
          "name": "",
          "type": "uint256"
        }
      ],
      "name": "models",
      "outputs": [
        {
          "internalType": "string",
          "name": "name",
          "type": "string"
        },
        {
          "internalType": "string",
          "name": "description",
          "type": "string"
        },
        {
          "internalType": "uint256",
          "name": "price",
          "type": "uint256"
        },
        {
          "internalType": "address payable",
          "name": "creator",
          "type": "address"
        },
        {
          "internalType": "uint8",
          "name": "ratingCount",
          "type": "uint8"
        },
        {
          "internalType": "uint256",
          "name": "totalRating",
          "type": "uint256"
        }
      ],
      "stateMutability": "view",
      "type": "function"
    },
    {
      "inputs": [
        {
          "internalType": "string",
          "name": "name",
          "type": "string"
        },
        {
          "internalType": "string",
          "name": "description",
          "type": "string"
        },
        {
          "internalType": "uint256",
          "name": "price",
          "type": "uint256"
        }
      ],
      "name": "listModel",
      "outputs": [],
      "stateMutability": "nonpayable",
      "type": "function"
    },
    {
      "inputs": [
        {
          "internalType": "uint256",
          "name": "modelId",
          "type": "uint256"
        }
      ],
      "name": "purchaseModel",
      "outputs": [],
      "stateMutability": "payable",
      "type": "function"
    },
    {
      "inputs": [
        {
          "internalType": "uint256",
          "name": "modelId",
          "type": "uint256"
        },
        {
          "internalType": "uint8",
          "name": "rating",
          "type": "uint8"
        }
      ],
      "name": "rateModel",
      "outputs": [],
      "stateMutability": "nonpayable",
      "type": "function"
    },
    {
      "inputs": [],
      "name": "withdrawFunds",
      "outputs": [],
      "stateMutability": "nonpayable",
      "type": "function"
    },
    {
      "inputs": [
        {
          "internalType": "uint256",
          "name": "modelId",
          "type": "uint256"
        }
      ],
      "name": "getModelDetails",
      "outputs": [
        {
          "internalType": "string",
          "name": "name",
          "type": "string"
        },
        {
          "internalType": "string",
          "name": "description",
          "type": "string"
        },
        {
          "internalType": "uint256",
          "name": "price",
          "type": "uint256"
        },
        {
          "internalType": "address",
          "name": "creator",
          "type": "address"
        },
        {
          "internalType": "uint256",
          "name": "averageRating",
          "type": "uint256"
        }
      ],
      "stateMutability": "view",
      "type": "function"
    }
  ],
  "bytecode": "0x608060405234801561000f575f80fd5b5061197e8061001d5f395ff3fe60806040526004361061006f575f3560e01c806331fc042f1161004d57806331fc042f146100d95780636a030ca914610119578063dc7468621461015a578063dc9da2f8146101765761006f565b806312ee1c0e146100735780631c788a9a1461009b57806324600fc3146100c3575b5f80fd5b34801561007e575f80fd5b5061009960048036038101906100949190610dd1565b6101b2565b005b3480156100a6575f80fd5b506100c160048036038101906100bc9190610e8f565b610358565b005b3480156100ce575f80fd5b506100d7610535565b005b3480156100e4575f80fd5b506100ff60048036038101906100fa9190610ecd565b6105e5565b604051610110959493929190610fc0565b60405180910390f35b348015610124575f80fd5b5061013f600480360381019061013a9190610ecd565b6107f6565b6040516101519695949392919061104e565b60405180910390f35b610174600480360381019061016f9190610ecd565b610974565b005b348015610181575f80fd5b5061019c600480360381019061019791906110e5565b610c27565b6040516101a9919061113d565b60405180910390f35b5f81116101f4576040517f08c379a00000000000000000000000000000000000000000000000000000000081526004016101eb906111a0565b60405180910390fd5b5f6040518060c001604052808581526020018481526020018381526020013373ffffffffffffffffffffffffffffffffffffffff1681526020015f60ff1681526020015f815250908060018154018082558091505060019003905f5260205f2090600502015f909190919091505f820151815f01908161027491906113b8565b50602082015181600101908161028a91906113b8565b50604082015181600201556060820151816003015f6101000a81548173ffffffffffffffffffffffffffffffffffffffff021916908373ffffffffffffffffffffffffffffffffffffffff16021790555060808201518160030160146101000a81548160ff021916908360ff16021790555060a0820151816004015550507fc871238e094f30f9449f0d1948e935f470dcbf4dbc2b2aef67d45f45d4ea880b60015f8054905061033a91906114b4565b843360405161034b939291906114e7565b60405180910390a1505050565b5f80549050821061039e576040517f08c379a00000000000000000000000000000000000000000000000000000000081526004016103959061156d565b60405180910390fd5b60015f8381526020019081526020015f205f3373ffffffffffffffffffffffffffffffffffffffff1673ffffffffffffffffffffffffffffffffffffffff1681526020019081526020015f205f9054906101000a900460ff16610436576040517f08c379a000000000000000000000000000000000000000000000000000000000815260040161042d906115fb565b60405180910390fd5b5f8160ff1611801561044c575060058160ff1611155b61048b576040517f08c379a000000000000000000000000000000000000000000000000000000000815260040161048290611663565b60405180910390fd5b5f80838154811061049f5761049e611681565b5b905f5260205f209060050201905080600301601481819054906101000a900460ff168092919060010191906101000a81548160ff021916908360ff160217905550508160ff16816004015f82825401925050819055507f4129c8696bb756892ebbda9c4396a685357b1f8eddd505fee0f194e56f8c9a2b838333604051610528939291906116ae565b60405180910390a1505050565b5f4790505f3373ffffffffffffffffffffffffffffffffffffffff168260405161055e90611710565b5f6040518083038185875af1925050503d805f8114610598576040519150601f19603f3d011682016040523d82523d5f602084013e61059d565b606091505b50509050806105e1576040517f08c379a00000000000000000000000000000000000000000000000000000000081526004016105d89061176e565b60405180910390fd5b5050565b6060805f805f80805490508610610631576040517f08c379a00000000000000000000000000000000000000000000000000000000081526004016106289061156d565b60405180910390fd5b5f80878154811061064557610644611681565b5b905f5260205f20906005020190505f808260030160149054906101000a900460ff1660ff1611610675575f61069a565b8160030160149054906101000a900460ff1660ff16826004015461069991906117b9565b5b9050815f01826001018360020154846003015f9054906101000a900473ffffffffffffffffffffffffffffffffffffffff16848480546106d9906111eb565b80601f0160208091040260200160405190810160405280929190818152602001828054610705906111eb565b80156107505780601f1061072757610100808354040283529160200191610750565b820191905f5260205f20905b81548152906001019060200180831161073357829003601f168201915b50505050509450838054610763906111eb565b80601f016020809104026020016040519081016040528092919081815260200182805461078f906111eb565b80156107da5780601f106107b1576101008083540402835291602001916107da565b820191905f5260205f20905b8154815290600101906020018083116107bd57829003601f168201915b5050505050935096509650965096509650505091939590929450565b5f8181548110610804575f80fd5b905f5260205f2090600502015f91509050805f018054610823906111eb565b80601f016020809104026020016040519081016040528092919081815260200182805461084f906111eb565b801561089a5780601f106108715761010080835404028352916020019161089a565b820191905f5260205f20905b81548152906001019060200180831161087d57829003601f168201915b5050505050908060010180546108af906111eb565b80601f01602080910402602001604051908101604052809291908181526020018280546108db906111eb565b80156109265780601f106108fd57610100808354040283529160200191610926565b820191905f5260205f20905b81548152906001019060200180831161090957829003601f168201915b505050505090806002015490806003015f9054906101000a900473ffffffffffffffffffffffffffffffffffffffff16908060030160149054906101000a900460ff16908060040154905086565b5f8054905081106109ba576040517f08c379a00000000000000000000000000000000000000000000000000000000081526004016109b19061156d565b60405180910390fd5b5f8082815481106109ce576109cd611681565b5b905f5260205f209060050201905080600201543414610a22576040517f08c379a0000000000000000000000000000000000000000000000000000000008152600401610a1990611833565b60405180910390fd5b60015f8381526020019081526020015f205f3373ffffffffffffffffffffffffffffffffffffffff1673ffffffffffffffffffffffffffffffffffffffff1681526020019081526020015f205f9054906101000a900460ff1615610abb576040517f08c379a0000000000000000000000000000000000000000000000000000000008152600401610ab29061189b565b60405180910390fd5b5f816003015f9054906101000a900473ffffffffffffffffffffffffffffffffffffffff1673ffffffffffffffffffffffffffffffffffffffff1634604051610b0390611710565b5f6040518083038185875af1925050503d805f8114610b3d576040519150601f19603f3d011682016040523d82523d5f602084013e610b42565b606091505b5050905080610b86576040517f08c379a0000000000000000000000000000000000000000000000000000000008152600401610b7d90611903565b60405180910390fd5b6001805f8581526020019081526020015f205f3373ffffffffffffffffffffffffffffffffffffffff1673ffffffffffffffffffffffffffffffffffffffff1681526020019081526020015f205f6101000a81548160ff0219169083151502179055507fc8581808129c51c0416692a5ea1b58e080ae8f21e384eefe2f2dc85d231d12ba8333604051610c1a929190611921565b60405180910390a1505050565b6001602052815f5260405f20602052805f5260405f205f915091509054906101000a900460ff1681565b5f604051905090565b5f80fd5b5f80fd5b5f80fd5b5f80fd5b5f601f19601f8301169050919050565b7f4e487b71000000000000000000000000000000000000000000000000000000005f52604160045260245ffd5b610cb082610c6a565b810181811067ffffffffffffffff82111715610ccf57610cce610c7a565b5b80604052505050565b5f610ce1610c51565b9050610ced8282610ca7565b919050565b5f67ffffffffffffffff821115610d0c57610d0b610c7a565b5b610d1582610c6a565b9050602081019050919050565b828183375f83830152505050565b5f610d42610d3d84610cf2565b610cd8565b905082815260208101848484011115610d5e57610d5d610c66565b5b610d69848285610d22565b509392505050565b5f82601f830112610d8557610d84610c62565b5b8135610d95848260208601610d30565b91505092915050565b5f819050919050565b610db081610d9e565b8114610dba575f80fd5b50565b5f81359050610dcb81610da7565b92915050565b5f805f60608486031215610de857610de7610c5a565b5b5f84013567ffffffffffffffff811115610e0557610e04610c5e565b5b610e1186828701610d71565b935050602084013567ffffffffffffffff811115610e3257610e31610c5e565b5b610e3e86828701610d71565b9250506040610e4f86828701610dbd565b9150509250925092565b5f60ff82169050919050565b610e6e81610e59565b8114610e78575f80fd5b50565b5f81359050610e8981610e65565b92915050565b5f8060408385031215610ea557610ea4610c5a565b5b5f610eb285828601610dbd565b9250506020610ec385828601610e7b565b9150509250929050565b5f60208284031215610ee257610ee1610c5a565b5b5f610eef84828501610dbd565b91505092915050565b5f81519050919050565b5f82825260208201905092915050565b5f5b83811015610f2f578082015181840152602081019050610f14565b5f8484015250505050565b5f610f4482610ef8565b610f4e8185610f02565b9350610f5e818560208601610f12565b610f6781610c6a565b840191505092915050565b610f7b81610d9e565b82525050565b5f73ffffffffffffffffffffffffffffffffffffffff82169050919050565b5f610faa82610f81565b9050919050565b610fba81610fa0565b82525050565b5f60a0820190508181035f830152610fd88188610f3a565b90508181036020830152610fec8187610f3a565b9050610ffb6040830186610f72565b6110086060830185610fb1565b6110156080830184610f72565b9695505050505050565b5f61102982610f81565b9050919050565b6110398161101f565b82525050565b61104881610e59565b82525050565b5f60c0820190508181035f8301526110668189610f3a565b9050818103602083015261107a8188610f3a565b90506110896040830187610f72565b6110966060830186611030565b6110a3608083018561103f565b6110b060a0830184610f72565b979650505050505050565b6110c481610fa0565b81146110ce575f80fd5b50565b5f813590506110df816110bb565b92915050565b5f80604083850312156110fb576110fa610c5a565b5b5f61110885828601610dbd565b9250506020611119858286016110d1565b9150509250929050565b5f8115159050919050565b61113781611123565b82525050565b5f6020820190506111505f83018461112e565b92915050565b7f5072696365206d7573742062652067726561746572207468616e207a65726f005f82015250565b5f61118a601f83610f02565b915061119582611156565b602082019050919050565b5f6020820190508181035f8301526111b78161117e565b9050919050565b7f4e487b71000000000000000000000000000000000000000000000000000000005f52602260045260245ffd5b5f600282049050600182168061120257607f821691505b602082108103611215576112146111be565b5b50919050565b5f819050815f5260205f209050919050565b5f6020601f8301049050919050565b5f82821b905092915050565b5f600883026112777fffffffffffffffffffffffffffffffffffffffffffffffffffffffffffffffff8261123c565b611281868361123c565b95508019841693508086168417925050509392505050565b5f819050919050565b5f6112bc6112b76112b284610d9e565b611299565b610d9e565b9050919050565b5f819050919050565b6112d5836112a2565b6112e96112e1826112c3565b848454611248565b825550505050565b5f90565b6112fd6112f1565b6113088184846112cc565b505050565b5b8181101561132b576113205f826112f5565b60018101905061130e565b5050565b601f821115611370576113418161121b565b61134a8461122d565b81016020851015611359578190505b61136d6113658561122d565b83018261130d565b50505b505050565b5f82821c905092915050565b5f6113905f1984600802611375565b1980831691505092915050565b5f6113a88383611381565b9150826002028217905092915050565b6113c182610ef8565b67ffffffffffffffff8111156113da576113d9610c7a565b5b6113e482546111eb565b6113ef82828561132f565b5f60209050601f831160018114611420575f841561140e578287015190505b611418858261139d565b86555061147f565b601f19841661142e8661121b565b5f5b8281101561145557848901518255600182019150602085019450602081019050611430565b86831015611472578489015161146e601f891682611381565b8355505b6001600288020188555050505b505050505050565b7f4e487b71000000000000000000000000000000000000000000000000000000005f52601160045260245ffd5b5f6114be82610d9e565b91506114c983610d9e565b92508282039050818111156114e1576114e0611487565b5b92915050565b5f6060820190506114fa5f830186610f72565b818103602083015261150c8185610f3a565b905061151b6040830184610fb1565b949350505050565b7f4d6f64656c20646f6573206e6f742065786973740000000000000000000000005f82015250565b5f611557601483610f02565b915061156282611523565b602082019050919050565b5f6020820190508181035f8301526115848161154b565b9050919050565b7f596f75206d75737420707572636861736520746865206d6f64656c20746f20725f8201527f6174652069740000000000000000000000000000000000000000000000000000602082015250565b5f6115e5602683610f02565b91506115f08261158b565b604082019050919050565b5f6020820190508181035f830152611612816115d9565b9050919050565b7f526174696e67206d757374206265206265747765656e203120616e64203500005f82015250565b5f61164d601e83610f02565b915061165882611619565b602082019050919050565b5f6020820190508181035f83015261167a81611641565b9050919050565b7f4e487b71000000000000000000000000000000000000000000000000000000005f52603260045260245ffd5b5f6060820190506116c15f830186610f72565b6116ce602083018561103f565b6116db6040830184610fb1565b949350505050565b5f81905092915050565b50565b5f6116fb5f836116e3565b9150611706826116ed565b5f82019050919050565b5f61171a826116f0565b9150819050919050565b7f5769746864726177206661696c656400000000000000000000000000000000005f82015250565b5f611758600f83610f02565b915061176382611724565b602082019050919050565b5f6020820190508181035f8301526117858161174c565b9050919050565b7f4e487b71000000000000000000000000000000000000000000000000000000005f52601260045260245ffd5b5f6117c382610d9e565b91506117ce83610d9e565b9250826117de576117dd61178c565b5b828204905092915050565b7f496e636f7272656374207061796d656e7420616d6f756e7400000000000000005f82015250565b5f61181d601883610f02565b9150611828826117e9565b602082019050919050565b5f6020820190508181035f83015261184a81611811565b9050919050565b7f4d6f64656c20616c7265616479207075726368617365640000000000000000005f82015250565b5f611885601783610f02565b915061189082611851565b602082019050919050565b5f6020820190508181035f8301526118b281611879565b9050919050565b7f5472616e73666572206661696c656400000000000000000000000000000000005f82015250565b5f6118ed600f83610f02565b91506118f8826118b9565b602082019050919050565b5f6020820190508181035f83015261191a816118e1565b9050919050565b5f6040820190506119345f830185610f72565b6119416020830184610fb1565b939250505056fea2646970667358221220875ca1f986926a9aa7073010123da7244378effb22af2eaadde420e8d1c3e9de64736f6c63430008140033",
  "immutableReferences": {},
  "source": "// SPDX-License-Identifier: MIT\r\npragma solidity ^0.8.20;\r\n\r\ncontract AIModelMarketplace {\r\n    struct Model {\r\n        string name;\r\n        string description;\r\n        uint256 price;\r\n        address payable creator;\r\n        uint8 ratingCount;\r\n        uint256 totalRating;\r\n    }\r\n\r\n    Model[] public models;\r\n    mapping(uint256 => mapping(address => bool)) public hasPurchased;\r\n\r\n    event ModelListed(uint256 modelId, string name, address creator);\r\n    event ModelPurchased(uint256 modelId, address buyer);\r\n    event ModelRated(uint256 modelId, uint8 rating, address rater);\r\n\r\n    function listModel(string memory name, string memory description, uint256 price) public {\r\n        require(price > 0, \"Price must be greater than zero\");\r\n        models.push(Model({\r\n            name: name,\r\n            description: description,\r\n            price: price,\r\n            creator: payable(msg.sender),\r\n            ratingCount: 0,\r\n            totalRating: 0\r\n        }));\r\n        emit ModelListed(models.length - 1, name, msg.sender);\r\n    }\r\n\r\n    function purchaseModel(uint256 modelId) public payable {\r\n        require(modelId < models.length, \"Model does not exist\");\r\n        Model storage model = models[modelId];\r\n        require(msg.value == model.price, \"Incorrect payment amount\");\r\n        require(!hasPurchased[modelId][msg.sender], \"Model already purchased\");\r\n\r\n        // Transfer funds using call to ensure compatibility\r\n        (bool success, ) = model.creator.call{value: msg.value}(\"\");\r\n        require(success, \"Transfer failed\");\r\n        \r\n        hasPurchased[modelId][msg.sender] = true;\r\n        emit ModelPurchased(modelId, msg.sender);\r\n    }\r\n\r\n    function rateModel(uint256 modelId, uint8 rating) public {\r\n        require(modelId < models.length, \"Model does not exist\");\r\n        require(hasPurchased[modelId][msg.sender], \"You must purchase the model to rate it\");\r\n        require(rating > 0 && rating <= 5, \"Rating must be between 1 and 5\");\r\n\r\n        Model storage model = models[modelId];\r\n        \r\n        // Using unchecked for gas optimization\r\n        unchecked {\r\n            model.ratingCount++;\r\n            model.totalRating += rating;\r\n        }\r\n\r\n        emit ModelRated(modelId, rating, msg.sender);\r\n    }\r\n\r\n    function withdrawFunds() public {\r\n        uint256 contractBalance = address(this).balance;\r\n\r\n        // Transfer funds using call\r\n        (bool success, ) = payable(msg.sender).call{value: contractBalance}(\"\");\r\n        require(success, \"Withdraw failed\");\r\n    }\r\n\r\n    function getModelDetails(uint256 modelId) public view returns (\r\n        string memory name,\r\n        string memory description,\r\n        uint256 price,\r\n        address creator,\r\n        uint256 averageRating\r\n    ) {\r\n        require(modelId < models.length, \"Model does not exist\");\r\n        Model storage model = models[modelId];\r\n        uint256 avgRating = model.ratingCount > 0 ? model.totalRating / model.ratingCount : 0;\r\n        return (model.name, model.description, model.price, model.creator, avgRating);\r\n    }\r\n}\r\n",
  "sourcePath": "C:\\Users\\Miras\\Documents\\2 course\\trimester 2\\Blockchain Technologies 1\\assignment 2\\ai-model-marketplace\\contracts\\AIModelMarketplace.sol",
  "compiler": {
    "name": "solc",
    "version": "0.8.20+commit.a1b79de6.Emscripten.clang"
  },
  "schemaVersion": "3.4.16",
  "updatedAt": "2025-01-12T15:04:41.400Z",
  "devdoc": {
    "kind": "dev",
    "methods": {},
    "version": 1
  },
  "userdoc": {
    "kind": "user",
    "methods": {},
    "version": 1
  }
}